{
  "abi": [
    {
      "inputs": [
        {
          "internalType": "string",
          "name": "_name",
          "type": "string"
        },
        {
          "internalType": "string",
          "name": "_symbol",
          "type": "string"
        },
        {
          "internalType": "bytes32",
          "name": "_merkleRoot",
          "type": "bytes32"
        },
        {
          "internalType": "string",
          "name": "_baseURI",
          "type": "string"
        },
        {
          "internalType": "uint256",
          "name": "_mintPeriod",
          "type": "uint256"
        },
        {
          "internalType": "address",
          "name": "_treasury",
          "type": "address"
        }
      ],
      "stateMutability": "nonpayable",
      "type": "constructor"
    },
    {
      "anonymous": false,
      "inputs": [
        {
          "indexed": true,
          "internalType": "address",
          "name": "owner",
          "type": "address"
        },
        {
          "indexed": true,
          "internalType": "address",
          "name": "spender",
          "type": "address"
        },
        {
          "indexed": true,
          "internalType": "uint256",
          "name": "id",
          "type": "uint256"
        }
      ],
      "name": "Approval",
      "type": "event"
    },
    {
      "anonymous": false,
      "inputs": [
        {
          "indexed": true,
          "internalType": "address",
          "name": "owner",
          "type": "address"
        },
        {
          "indexed": true,
          "internalType": "address",
          "name": "operator",
          "type": "address"
        },
        {
          "indexed": false,
          "internalType": "bool",
          "name": "approved",
          "type": "bool"
        }
      ],
      "name": "ApprovalForAll",
      "type": "event"
    },
    {
      "anonymous": false,
      "inputs": [
        {
          "indexed": true,
          "internalType": "address",
          "name": "previousOwner",
          "type": "address"
        },
        {
          "indexed": true,
          "internalType": "address",
          "name": "newOwner",
          "type": "address"
        }
      ],
      "name": "OwnershipTransferred",
      "type": "event"
    },
    {
      "anonymous": false,
      "inputs": [
        {
          "indexed": true,
          "internalType": "address",
          "name": "from",
          "type": "address"
        },
        {
          "indexed": true,
          "internalType": "address",
          "name": "to",
          "type": "address"
        },
        {
          "indexed": true,
          "internalType": "uint256",
          "name": "id",
          "type": "uint256"
        }
      ],
      "name": "Transfer",
      "type": "event"
    },
    {
      "inputs": [
        {
          "internalType": "address",
          "name": "spender",
          "type": "address"
        },
        {
          "internalType": "uint256",
          "name": "id",
          "type": "uint256"
        }
      ],
      "name": "approve",
      "outputs": [],
      "stateMutability": "nonpayable",
      "type": "function"
    },
    {
      "inputs": [
        {
          "internalType": "address",
          "name": "owner",
          "type": "address"
        }
      ],
      "name": "balanceOf",
      "outputs": [
        {
          "internalType": "uint256",
          "name": "",
          "type": "uint256"
        }
      ],
      "stateMutability": "view",
      "type": "function"
    },
    {
      "inputs": [],
      "name": "baseURI",
      "outputs": [
        {
          "internalType": "string",
          "name": "",
          "type": "string"
        }
      ],
      "stateMutability": "view",
      "type": "function"
    },
    {
      "inputs": [],
      "name": "currentTokenId",
      "outputs": [
        {
          "internalType": "uint256",
          "name": "",
          "type": "uint256"
        }
      ],
      "stateMutability": "view",
      "type": "function"
    },
    {
      "inputs": [
        {
          "internalType": "uint256",
          "name": "",
          "type": "uint256"
        }
      ],
      "name": "getApproved",
      "outputs": [
        {
          "internalType": "address",
          "name": "",
          "type": "address"
        }
      ],
      "stateMutability": "view",
      "type": "function"
    },
    {
      "inputs": [
        {
          "internalType": "address",
          "name": "",
          "type": "address"
        },
        {
          "internalType": "address",
          "name": "",
          "type": "address"
        }
      ],
      "name": "isApprovedForAll",
      "outputs": [
        {
          "internalType": "bool",
          "name": "",
          "type": "bool"
        }
      ],
      "stateMutability": "view",
      "type": "function"
    },
    {
      "inputs": [],
      "name": "maxSupply",
      "outputs": [
        {
          "internalType": "uint256",
          "name": "",
          "type": "uint256"
        }
      ],
      "stateMutability": "view",
      "type": "function"
    },
    {
      "inputs": [],
      "name": "merkleRoot",
      "outputs": [
        {
          "internalType": "bytes32",
          "name": "",
          "type": "bytes32"
        }
      ],
      "stateMutability": "view",
      "type": "function"
    },
    {
      "inputs": [
        {
          "internalType": "address",
          "name": "_recipient",
          "type": "address"
        },
        {
          "internalType": "bytes32[]",
          "name": "proof",
          "type": "bytes32[]"
        }
      ],
      "name": "mint",
      "outputs": [
        {
          "internalType": "uint256",
          "name": "",
          "type": "uint256"
        }
      ],
      "stateMutability": "nonpayable",
      "type": "function"
    },
    {
      "inputs": [],
      "name": "mintPeriod",
      "outputs": [
        {
          "internalType": "uint256",
          "name": "",
          "type": "uint256"
        }
      ],
      "stateMutability": "view",
      "type": "function"
    },
    {
      "inputs": [],
      "name": "name",
      "outputs": [
        {
          "internalType": "string",
          "name": "",
          "type": "string"
        }
      ],
      "stateMutability": "view",
      "type": "function"
    },
    {
      "inputs": [],
      "name": "owner",
      "outputs": [
        {
          "internalType": "address",
          "name": "",
          "type": "address"
        }
      ],
      "stateMutability": "view",
      "type": "function"
    },
    {
      "inputs": [
        {
          "internalType": "uint256",
          "name": "id",
          "type": "uint256"
        }
      ],
      "name": "ownerOf",
      "outputs": [
        {
          "internalType": "address",
          "name": "owner",
          "type": "address"
        }
      ],
      "stateMutability": "view",
      "type": "function"
    },
    {
      "inputs": [],
      "name": "renounceOwnership",
      "outputs": [],
      "stateMutability": "nonpayable",
      "type": "function"
    },
    {
      "inputs": [
        {
          "internalType": "address",
          "name": "from",
          "type": "address"
        },
        {
          "internalType": "address",
          "name": "to",
          "type": "address"
        },
        {
          "internalType": "uint256",
          "name": "id",
          "type": "uint256"
        }
      ],
      "name": "safeTransferFrom",
      "outputs": [],
      "stateMutability": "nonpayable",
      "type": "function"
    },
    {
      "inputs": [
        {
          "internalType": "address",
          "name": "from",
          "type": "address"
        },
        {
          "internalType": "address",
          "name": "to",
          "type": "address"
        },
        {
          "internalType": "uint256",
          "name": "id",
          "type": "uint256"
        },
        {
          "internalType": "bytes",
          "name": "data",
          "type": "bytes"
        }
      ],
      "name": "safeTransferFrom",
      "outputs": [],
      "stateMutability": "nonpayable",
      "type": "function"
    },
    {
      "inputs": [
        {
          "internalType": "address",
          "name": "operator",
          "type": "address"
        },
        {
          "internalType": "bool",
          "name": "approved",
          "type": "bool"
        }
      ],
      "name": "setApprovalForAll",
      "outputs": [],
      "stateMutability": "nonpayable",
      "type": "function"
    },
    {
      "inputs": [
        {
          "internalType": "string",
          "name": "_baseURI",
          "type": "string"
        }
      ],
      "name": "setBaseURI",
      "outputs": [],
      "stateMutability": "nonpayable",
      "type": "function"
    },
    {
      "inputs": [
        {
          "internalType": "bytes4",
          "name": "interfaceId",
          "type": "bytes4"
        }
      ],
      "name": "supportsInterface",
      "outputs": [
        {
          "internalType": "bool",
          "name": "",
          "type": "bool"
        }
      ],
      "stateMutability": "view",
      "type": "function"
    },
    {
      "inputs": [],
      "name": "symbol",
      "outputs": [
        {
          "internalType": "string",
          "name": "",
          "type": "string"
        }
      ],
      "stateMutability": "view",
      "type": "function"
    },
    {
      "inputs": [
        {
          "internalType": "uint256",
          "name": "tokenId",
          "type": "uint256"
        }
      ],
      "name": "tokenURI",
      "outputs": [
        {
          "internalType": "string",
          "name": "",
          "type": "string"
        }
      ],
      "stateMutability": "view",
      "type": "function"
    },
    {
      "inputs": [
        {
          "internalType": "address",
          "name": "from",
          "type": "address"
        },
        {
          "internalType": "address",
          "name": "to",
          "type": "address"
        },
        {
          "internalType": "uint256",
          "name": "id",
          "type": "uint256"
        }
      ],
      "name": "transferFrom",
      "outputs": [],
      "stateMutability": "nonpayable",
      "type": "function"
    },
    {
      "inputs": [
        {
          "internalType": "address",
          "name": "newOwner",
          "type": "address"
        }
      ],
      "name": "transferOwnership",
      "outputs": [],
      "stateMutability": "nonpayable",
      "type": "function"
    },
    {
      "inputs": [],
      "name": "treasury",
      "outputs": [
        {
          "internalType": "address",
          "name": "",
          "type": "address"
        }
      ],
      "stateMutability": "view",
      "type": "function"
    },
    {
      "inputs": [
        {
          "internalType": "address",
          "name": "",
          "type": "address"
        }
      ],
      "name": "userToClaims",
      "outputs": [
        {
          "internalType": "bool",
          "name": "",
          "type": "bool"
        }
      ],
      "stateMutability": "view",
      "type": "function"
    },
    {
      "inputs": [],
      "name": "withdraw",
      "outputs": [],
      "stateMutability": "nonpayable",
      "type": "function"
    },
    {
      "inputs": [],
      "name": "withdrawAll",
      "outputs": [],
      "stateMutability": "nonpayable",
      "type": "function"
    }
  ],
  "bytecode": {
    "object": "0x60e06040523480156200001157600080fd5b5060405162001e9c38038062001e9c8339810160408190526200003491620001c6565b858560006200004483826200031c565b5060016200005382826200031c565b505050620000706200006a620000ab60201b60201c565b620000af565b608084905260086200008384826200031c565b50620000908242620003e8565b60a0526001600160a01b031660c05250620004109350505050565b3390565b600680546001600160a01b038381166001600160a01b0319831681179093556040519116919082907f8be0079c531659141344cd1fd0a4f28419497f9722a3daafe3b4186f6b6457e090600090a35050565b634e487b7160e01b600052604160045260246000fd5b600082601f8301126200012957600080fd5b81516001600160401b038082111562000146576200014662000101565b604051601f8301601f19908116603f0116810190828211818310171562000171576200017162000101565b816040528381526020925086838588010111156200018e57600080fd5b600091505b83821015620001b2578582018301518183018401529082019062000193565b600093810190920192909252949350505050565b60008060008060008060c08789031215620001e057600080fd5b86516001600160401b0380821115620001f857600080fd5b620002068a838b0162000117565b975060208901519150808211156200021d57600080fd5b6200022b8a838b0162000117565b96506040890151955060608901519150808211156200024957600080fd5b506200025889828a0162000117565b608089015160a08a0151919550935090506001600160a01b03811681146200027f57600080fd5b809150509295509295509295565b600181811c90821680620002a257607f821691505b602082108103620002c357634e487b7160e01b600052602260045260246000fd5b50919050565b601f8211156200031757600081815260208120601f850160051c81016020861015620002f25750805b601f850160051c820191505b818110156200031357828155600101620002fe565b5050505b505050565b81516001600160401b0381111562000338576200033862000101565b62000350816200034984546200028d565b84620002c9565b602080601f8311600181146200038857600084156200036f5750858301515b600019600386901b1c1916600185901b17855562000313565b600085815260208120601f198616915b82811015620003b95788860151825594840194600190910190840162000398565b5085821015620003d85787850151600019600388901b60f8161c191681555b5050505050600190811b01905550565b808201808211156200040a57634e487b7160e01b600052601160045260246000fd5b92915050565b60805160a05160c051611a39620004636000396000818161030e015281816108370152610ca20152600081816102d4015281816107ad0152610c0c01526000818161026f0152610aae0152611a396000f3fe608060405234801561001057600080fd5b50600436106101a85760003560e01c80636352211e116100f957806395d89b4111610097578063c87b56dd11610071578063c87b56dd146103c0578063d5abeb01146103d3578063e985e9c5146103dc578063f2fde38b1461040a57600080fd5b806395d89b4114610392578063a22cb4651461039a578063b88d4fde146103ad57600080fd5b8063715018a6116100d3578063715018a61461035e5780637bf3227014610366578063853828b6146103795780638da5cb5b1461038157600080fd5b80636352211e146103305780636c0360eb1461034357806370a082311461034b57600080fd5b80632eb4a7ab116101665780634b38413c116101405780634b38413c146102ac5780634c498203146102cf57806355f804b3146102f657806361d027b31461030957600080fd5b80632eb4a7ab1461026a5780633ccfd60b1461029157806342842e0e1461029957600080fd5b80629a9b7b146101ad57806301ffc9a7146101c957806306fdde03146101ec578063081812fc14610201578063095ea7b31461024257806323b872dd14610257575b600080fd5b6101b660075481565b6040519081526020015b60405180910390f35b6101dc6101d736600461137d565b61041d565b60405190151581526020016101c0565b6101f461046f565b6040516101c091906113be565b61022a61020f3660046113f1565b6004602052600090815260409020546001600160a01b031681565b6040516001600160a01b0390911681526020016101c0565b610255610250366004611421565b6104fd565b005b61025561026536600461144b565b6105e4565b6101b67f000000000000000000000000000000000000000000000000000000000000000081565b6102556107ab565b6102556102a736600461144b565b61085f565b6101dc6102ba366004611487565b60096020526000908152604090205460ff1681565b6101b67f000000000000000000000000000000000000000000000000000000000000000081565b6102556103043660046114e9565b610934565b61022a7f000000000000000000000000000000000000000000000000000000000000000081565b61022a61033e3660046113f1565b61094c565b6101f46109a3565b6101b6610359366004611487565b6109b0565b610255610a13565b6101b661037436600461157e565b610a27565b610255610c0a565b6006546001600160a01b031661022a565b6101f4610ccd565b6102556103a8366004611637565b610cda565b6102556103bb366004611673565b610d46565b6101f46103ce3660046113f1565b610e0b565b6101b66109c481565b6101dc6103ea36600461170e565b600560209081526000928352604080842090915290825290205460ff1681565b610255610418366004611487565b610e73565b60006301ffc9a760e01b6001600160e01b03198316148061044e57506380ac58cd60e01b6001600160e01b03198316145b806104695750635b5e139f60e01b6001600160e01b03198316145b92915050565b6000805461047c90611741565b80601f01602080910402602001604051908101604052809291908181526020018280546104a890611741565b80156104f55780601f106104ca576101008083540402835291602001916104f5565b820191906000526020600020905b8154815290600101906020018083116104d857829003601f168201915b505050505081565b6000818152600260205260409020546001600160a01b03163381148061054657506001600160a01b038116600090815260056020908152604080832033845290915290205460ff165b6105885760405162461bcd60e51b815260206004820152600e60248201526d1393d517d055551213d49256915160921b60448201526064015b60405180910390fd5b60008281526004602052604080822080546001600160a01b0319166001600160a01b0387811691821790925591518593918516917f8c5be1e5ebec7d5bd14f71427d1e84f3dd0314c0f7b2291e5b200ac8c7c3b92591a4505050565b6000818152600260205260409020546001600160a01b0384811691161461063a5760405162461bcd60e51b815260206004820152600a60248201526957524f4e475f46524f4d60b01b604482015260640161057f565b6001600160a01b0382166106845760405162461bcd60e51b81526020600482015260116024820152701253959053125117d49150d25412515395607a1b604482015260640161057f565b336001600160a01b03841614806106be57506001600160a01b038316600090815260056020908152604080832033845290915290205460ff165b806106df57506000818152600460205260409020546001600160a01b031633145b61071c5760405162461bcd60e51b815260206004820152600e60248201526d1393d517d055551213d49256915160921b604482015260640161057f565b6001600160a01b0380841660008181526003602090815260408083208054600019019055938616808352848320805460010190558583526002825284832080546001600160a01b03199081168317909155600490925284832080549092169091559251849392917fddf252ad1be2c89b69c2b068fc378daa952ba7f163c4a11628f55a4df523b3ef91a4505050565b7f0000000000000000000000000000000000000000000000000000000000000000421161081a5760405162461bcd60e51b815260206004820152601a60248201527f4d696e7420706572696f64207374696c6c206e6f74206f766572000000000000604482015260640161057f565b600060076000815461082b90611791565b9182905550905061085c7f000000000000000000000000000000000000000000000000000000000000000082610ee9565b50565b61086a8383836105e4565b6001600160a01b0382163b15806109135750604051630a85bd0160e11b8082523360048301526001600160a01b03858116602484015260448301849052608060648401526000608484015290919084169063150b7a029060a4016020604051808303816000875af11580156108e3573d6000803e3d6000fd5b505050506040513d601f19601f8201168201806040525081019061090791906117aa565b6001600160e01b031916145b61092f5760405162461bcd60e51b815260040161057f906117c7565b505050565b61093c610fb5565b6008610948828261183f565b5050565b6000818152600260205260409020546001600160a01b03168061099e5760405162461bcd60e51b815260206004820152600a6024820152691393d517d3525395115160b21b604482015260640161057f565b919050565b6008805461047c90611741565b60006001600160a01b0382166109f75760405162461bcd60e51b815260206004820152600c60248201526b5a45524f5f4144445245535360a01b604482015260640161057f565b506001600160a01b031660009081526003602052604090205490565b610a1b610fb5565b610a25600061100f565b565b60006001600160a01b038316610a6e5760405162461bcd60e51b815260206004820152600c60248201526b41646472657373205a65726f60a01b604482015260640161057f565b6040516bffffffffffffffffffffffff19606085901b166020820152600090603401604051602081830303815290604052805190602001209050610ad3837f000000000000000000000000000000000000000000000000000000000000000083611061565b610b0f5760405162461bcd60e51b815260206004820152600d60248201526c24b73b30b634b210383937b7b360991b604482015260640161057f565b6001600160a01b03841660009081526009602052604090205460ff1615610b6a5760405162461bcd60e51b815260206004820152600f60248201526e105b1c9958591e4818db185a5b5959608a1b604482015260640161057f565b6109c46007546001610b7c91906118ff565b1115610bbf5760405162461bcd60e51b815260206004820152601260248201527113585e081cdd5c1c1b1e481c995858da195960721b604482015260640161057f565b6001600160a01b0384166000908152600960205260408120805460ff19166001179055600780548290610bf190611791565b91829055509050610c028582610ee9565b949350505050565b7f00000000000000000000000000000000000000000000000000000000000000004211610c795760405162461bcd60e51b815260206004820152601a60248201527f4d696e7420706572696f64207374696c6c206e6f74206f766572000000000000604482015260640161057f565b6109c46007541015610a25576000600760008154610c9690611791565b91829055509050610cc77f000000000000000000000000000000000000000000000000000000000000000082610ee9565b50610c79565b6001805461047c90611741565b3360008181526005602090815260408083206001600160a01b03871680855290835292819020805460ff191686151590811790915590519081529192917f17307eab39ab6107e8899845ad3d59bd9653f200f220920489ca2b5937696c31910160405180910390a35050565b610d518585856105e4565b6001600160a01b0384163b1580610de85750604051630a85bd0160e11b808252906001600160a01b0386169063150b7a0290610d999033908a90899089908990600401611912565b6020604051808303816000875af1158015610db8573d6000803e3d6000fd5b505050506040513d601f19601f82011682018060405250810190610ddc91906117aa565b6001600160e01b031916145b610e045760405162461bcd60e51b815260040161057f906117c7565b5050505050565b6060610e168261094c565b50600060088054610e2690611741565b905011610e425760405180602001604052806000815250610469565b6008610e4d83611077565b604051602001610e5e929190611966565b60405160208183030381529060405292915050565b610e7b610fb5565b6001600160a01b038116610ee05760405162461bcd60e51b815260206004820152602660248201527f4f776e61626c653a206e6577206f776e657220697320746865207a65726f206160448201526564647265737360d01b606482015260840161057f565b61085c8161100f565b610ef382826111dd565b6001600160a01b0382163b1580610f995750604051630a85bd0160e11b80825233600483015260006024830181905260448301849052608060648401526084830152906001600160a01b0384169063150b7a029060a4016020604051808303816000875af1158015610f69573d6000803e3d6000fd5b505050506040513d601f19601f82011682018060405250810190610f8d91906117aa565b6001600160e01b031916145b6109485760405162461bcd60e51b815260040161057f906117c7565b6006546001600160a01b03163314610a255760405162461bcd60e51b815260206004820181905260248201527f4f776e61626c653a2063616c6c6572206973206e6f7420746865206f776e6572604482015260640161057f565b600680546001600160a01b038381166001600160a01b0319831681179093556040519116919082907f8be0079c531659141344cd1fd0a4f28419497f9722a3daafe3b4186f6b6457e090600090a35050565b60008261106e85846112e8565b14949350505050565b606060018272184f03e93ff9f4daa797ed6e38ed64bf6a1f0160401b81106110ba576040919091019072184f03e93ff9f4daa797ed6e38ed64bf6a1f0160401b90045b6d04ee2d6d415b85acef810000000081106110e857602091909101906d04ee2d6d415b85acef810000000090045b662386f26fc1000081106111085760109190910190662386f26fc1000090045b6305f5e100811061112257600891909101906305f5e10090045b6127108110611138576004919091019061271090045b6064811061114c5760029190910190606490045b600a811061115b576001820191505b60008267ffffffffffffffff811115611176576111766114a2565b6040519080825280601f01601f1916602001820160405280156111a0576020820181803683370190505b5090508281016020015b600019016f181899199a1a9b1b9c1cb0b131b232b360811b600a87061a8153600a86049550856111aa5750949350505050565b6001600160a01b0382166112275760405162461bcd60e51b81526020600482015260116024820152701253959053125117d49150d25412515395607a1b604482015260640161057f565b6000818152600260205260409020546001600160a01b03161561127d5760405162461bcd60e51b815260206004820152600e60248201526d1053149150511657d3525395115160921b604482015260640161057f565b6001600160a01b038216600081815260036020908152604080832080546001019055848352600290915280822080546001600160a01b0319168417905551839291907fddf252ad1be2c89b69c2b068fc378daa952ba7f163c4a11628f55a4df523b3ef908290a45050565b600081815b845181101561132d576113198286838151811061130c5761130c6119ed565b6020026020010151611335565b91508061132581611791565b9150506112ed565b509392505050565b6000818310611351576000828152602084905260409020611360565b60008381526020839052604090205b9392505050565b6001600160e01b03198116811461085c57600080fd5b60006020828403121561138f57600080fd5b813561136081611367565b60005b838110156113b557818101518382015260200161139d565b50506000910152565b60208152600082518060208401526113dd81604085016020870161139a565b601f01601f19169190910160400192915050565b60006020828403121561140357600080fd5b5035919050565b80356001600160a01b038116811461099e57600080fd5b6000806040838503121561143457600080fd5b61143d8361140a565b946020939093013593505050565b60008060006060848603121561146057600080fd5b6114698461140a565b92506114776020850161140a565b9150604084013590509250925092565b60006020828403121561149957600080fd5b6113608261140a565b634e487b7160e01b600052604160045260246000fd5b604051601f8201601f1916810167ffffffffffffffff811182821017156114e1576114e16114a2565b604052919050565b600060208083850312156114fc57600080fd5b823567ffffffffffffffff8082111561151457600080fd5b818501915085601f83011261152857600080fd5b81358181111561153a5761153a6114a2565b61154c601f8201601f191685016114b8565b9150808252868482850101111561156257600080fd5b8084840185840137600090820190930192909252509392505050565b6000806040838503121561159157600080fd5b61159a8361140a565b915060208084013567ffffffffffffffff808211156115b857600080fd5b818601915086601f8301126115cc57600080fd5b8135818111156115de576115de6114a2565b8060051b91506115ef8483016114b8565b818152918301840191848101908984111561160957600080fd5b938501935b838510156116275784358252938501939085019061160e565b8096505050505050509250929050565b6000806040838503121561164a57600080fd5b6116538361140a565b91506020830135801515811461166857600080fd5b809150509250929050565b60008060008060006080868803121561168b57600080fd5b6116948661140a565b94506116a26020870161140a565b935060408601359250606086013567ffffffffffffffff808211156116c657600080fd5b818801915088601f8301126116da57600080fd5b8135818111156116e957600080fd5b8960208285010111156116fb57600080fd5b9699959850939650602001949392505050565b6000806040838503121561172157600080fd5b61172a8361140a565b91506117386020840161140a565b90509250929050565b600181811c9082168061175557607f821691505b60208210810361177557634e487b7160e01b600052602260045260246000fd5b50919050565b634e487b7160e01b600052601160045260246000fd5b6000600182016117a3576117a361177b565b5060010190565b6000602082840312156117bc57600080fd5b815161136081611367565b60208082526010908201526f155394d0519157d49150d2541251539560821b604082015260600190565b601f82111561092f57600081815260208120601f850160051c810160208610156118185750805b601f850160051c820191505b8181101561183757828155600101611824565b505050505050565b815167ffffffffffffffff811115611859576118596114a2565b61186d816118678454611741565b846117f1565b602080601f8311600181146118a2576000841561188a5750858301515b600019600386901b1c1916600185901b178555611837565b600085815260208120601f198616915b828110156118d1578886015182559484019460019091019084016118b2565b50858210156118ef5787850151600019600388901b60f8161c191681555b5050505050600190811b01905550565b808201808211156104695761046961177b565b6001600160a01b038681168252851660208201526040810184905260806060820181905281018290526000828460a0840137600060a0848401015260a0601f19601f85011683010190509695505050505050565b600080845461197481611741565b6001828116801561198c57600181146119a1576119d0565b60ff19841687528215158302870194506119d0565b8860005260208060002060005b858110156119c75781548a8201529084019082016119ae565b50505082870194505b5050505083516119e481836020880161139a565b01949350505050565b634e487b7160e01b600052603260045260246000fdfea2646970667358221220b40f9616c9e00f818a109d5ac72e790b761290d335d2b3a591d3eb5856ec6f3f64736f6c63430008100033",
    "linkReferences": {}
  },
  "methodIdentifiers": {
    "approve(address,uint256)": "095ea7b3",
    "balanceOf(address)": "70a08231",
    "baseURI()": "6c0360eb",
    "currentTokenId()": "009a9b7b",
    "getApproved(uint256)": "081812fc",
    "isApprovedForAll(address,address)": "e985e9c5",
    "maxSupply()": "d5abeb01",
    "merkleRoot()": "2eb4a7ab",
    "mint(address,bytes32[])": "7bf32270",
    "mintPeriod()": "4c498203",
    "name()": "06fdde03",
    "owner()": "8da5cb5b",
    "ownerOf(uint256)": "6352211e",
    "renounceOwnership()": "715018a6",
    "safeTransferFrom(address,address,uint256)": "42842e0e",
    "safeTransferFrom(address,address,uint256,bytes)": "b88d4fde",
    "setApprovalForAll(address,bool)": "a22cb465",
    "setBaseURI(string)": "55f804b3",
    "supportsInterface(bytes4)": "01ffc9a7",
    "symbol()": "95d89b41",
    "tokenURI(uint256)": "c87b56dd",
    "transferFrom(address,address,uint256)": "23b872dd",
    "transferOwnership(address)": "f2fde38b",
    "treasury()": "61d027b3",
    "userToClaims(address)": "4b38413c",
    "withdraw()": "3ccfd60b",
    "withdrawAll()": "853828b6"
  },
  "id": 13
}